:100000000C9435000C94BC030C94BC030C94BC03FE
:100010000C94BC030C94BC030C94BC030C94BC0364
:100020000C94BC030C94BC030C94BC030C94BC0354
:100030000C94BC030C94BC030C94BC030C94BC0344
:100040000C945F000C94BC030C94BC030C94BC0394
:100050000C94BC030068006D000788006D007100FF
:10006000078D006000680007800011241FBECFE5E7
:10007000D8E0DEBFCDBFE4E5F0E040E017C0B591C9
:10008000A59135912591059107FD0CC0959185911C
:10009000EF01F92FE82F05900D92A217B307D9F7BA
:1000A000FE0104C01D92A217B307E1F7E936F40779
:0E00B00031F70E94E1020C945D00F894FFCF3E
:1000BE001F920F920FB60F921124CF92DF92EF92F2
:1000CE00FF922F933F934F935F936F937F938F93F3
:1000DE009F93AF93BF93EF93FF93CF93DF93CDB7E0
:1000EE00DEB76497DEBFCDBF0E94B003BC01660FC2
:1000FE00771F660F771F860F971FBC01990F880B0E
:10010E00990B0E94A2012FE632E143E85FE30E94C1
:10011E00B5030E9488036B017C01643C79404CF06E
:10012E0082E090E00E94670383E090E00E947203F9
:10013E000AC061E082E090E00E945D0164E083E02D
:10014E0090E00E945D014AE0BE016F5F7F4FC601E5
:10015E000E947D0348E650E067E080E00E940103C4
:10016E008FEF99EF20E0815090402040E1F700C0E2
:10017E000000AE014F5F5F4F67E080E00E94010319
:10018E008FEF99E628E1815090402040E1F700C0C2
:10019E0000000E94BE0364960FB6F894DEBF0FBE39
:1001AE00CDBFDF91CF91FF91EF91BF91AF919F9115
:1001BE008F917F916F915F914F913F912F91FF9012
:1001CE00EF90DF90CF900F900FBE0F901F9018956D
:1001DE000E94960358F00E948F0340F029F45F3F6F
:1001EE0029F00C94AA0351110C949E030C94B9039C
:1001FE000E945C0268F39923B1F3552391F3951B8A
:10020E00550BBB27AA2762177307840738F09F5F29
:10021E005F4F220F331F441FAA1FA9F335D00E2E96
:10022E003AF0E0E832D091505040E695001CCAF703
:10023E002BD0FE2F29D0660F771F881FBB1F2617C6
:10024E0037074807AB07B0E809F0BB0B802DBF019D
:10025E00FF2793585F4F3AF09E3F510578F00C946C
:10026E00AA030C949E035F3FE4F3983ED4F3869565
:10027E0077956795B795F7959F5FC9F7880F911D8D
:10028E009695879597F90895E1E0660F771F881F79
:10029E00BB1F621773078407BA0720F0621B730B2C
:0C02AE00840BBA0BEE1F88F7E095089552
:1002BA006230B9F018F4613031F008956330F9F022
:1002CA00643059F108954BB321E030E0B90102C01E
:1002DA00660F771F8A95E2F7CB01809584238BBB43
:1002EA00089548B321E030E0B90102C0660F771FD4
:1002FA008A95E2F7CB018095842388BB089545B39C
:10030A0021E030E0B90102C0660F771F8A95E2F753
:10031A00CB018095842385BB089542B321E030E068
:10032A00B90102C0660F771F8A95E2F7CB01809563
:06033A00842382BB08953C
:10034000E89409C097FB3EF490958095709561956F
:100350007F4F8F4F9F4F9923A9F0F92F96E9BB2725
:100360009395F695879577956795B795F111F8CFA1
:10037000FAF4BB0F11F460FF1BC06F5F7F4F8F4F0C
:100380009F4F16C0882311F096E911C0772321F002
:100390009EE8872F762F05C0662371F096E8862F9A
:1003A00070E060E02AF09A95660F771F881FDAF7F1
:0A03B000880F9695879597F9089538
:1003BA000E94640288F09F5798F0B92F9927B75185
:1003CA00B0F0E1F0660F771F881F991F1AF0BA95EF
:1003DA00C9F714C0B13091F00E949D03B1E00895AD
:1003EA000C949D03672F782F8827B85F39F0B93F9F
:1003FA00CCF3869577956795B395D9F73EF49095A2
:0E040A008095709561957F4F8F4F9F4F08959D
:100418009BB39F70282F207F922B9BBBC198C39AB8
:1004280035E33A95F1F70000C398EFE3FFE1319720
:10043800F1F700C000002BB32F70F0E18F9FC001CF
:100448001124822B8BBBC39A35E03A95F1F7000053
:10045800C3988FE39FE10197F1F700C0000008956A
:100468009BB39F70282F207F922B9BBBC19AC39A66
:1004780035E33A95F1F70000C398EFE1F3E03197DF
:10048800F1F700C000002BB32F70F0E18F9FC0017F
:100498001124822B8BBBC39A35E33A95F1F7000000
:1004A800C3988FE59DE60197F1F700C00000089515
:1004B80057FD9058440F551F59F05F3F71F047950D
:1004C800880F97FB991F61F09F3F79F087950895F2
:1004D800121613061406551FF2CF4695F1DF08C011
:1004E800161617061806991FF1CF8695710561052E
:0404F80008940895C7
:1004FC006115710581F061307105D1F44AB321E0C9
:10050C0030E0B90102C0660F771F8A95E2F7CB0184
:10051C00842B8ABB08954AB321E030E0B90102C0B4
:10052C00660F771F8A95E2F7CB01809584238ABBEF
:02053C00089520
:10053E006115710581F061307105D1F441B321E08F
:10054E0030E0B90102C0660F771F8A95E2F7CB0142
:10055E00842B81BB089541B321E030E0B90102C084
:10056E00660F771F8A95E2F7CB018095842381BBB6
:02057E000895DE
:1005800080EF8ABB8FE087BBC2982FEF89EF90E0A6
:10059000215080409040E1F700C0000083E30E94BA
:1005A0000C0282E30E940C0288E20E940C028CE0A2
:1005B0000E940C0286E00E940C0281E00E940C0264
:0205C00008959C
:1005C2000E94C0020E94A403789461E070E082E07D
:1005D20090E00E947E0261E070E083E090E00E9481
:1005E2009F0240E650E060E080E00E9401034DE699
:1005F20050E06BE080E00E9401030E94BE03FFCF47
:10060200CF93DF93EA01811108C0603178F4862F1D
:100612008F7080680E940C0209C0813039F4603109
:1006220028F4862F8F70806C0E940C02CE010E94EB
:080632005803DF91CF910895F8
:10063A00BB27FB015527AA27880F991FAA1FA417B2
:10064A0010F0A41B83955051B9F7A05DAA3308F0A6
:10065A00A95DA193009779F7B111B1931192CB01DA
:04066A000C944803A1
:10066E00092E0394000C11F4882352F0BB0F40F4B2
:10067E00BF2B11F460FF04C06F5F7F4F8F4F9F4FF2
:02068E000895CD
:10069000DC01FC01672F71917723E1F7329704C0E9
:1006A0007C916D9370836291AE17BF07C8F3089574
:1006B000CF93DF93EC018881882331F021960E944B
:0E06C000340289918111FBCFDF91CF91089513
:1006CE009BB321E030E002C0220F331F8A95E2F780
:0606DE00292B2BBB08953F
:1006E40092B321E030E002C0220F331F8A95E2F773
:0606F400292B22BB089532
:1006FA00BB274A3031F4992322F4BDE290958195C3
:06070A009F4F0C941E033A
:0E0710000E94DD016894B1110C949E030895BF
:0E071E0000240A9416161706180609060895F8
:0E072C0000240A9412161306140605060895FA
:0E073A00E894BB2766277727CB0197F908952F
:0C07480081E887B986B18F6886B90895F2
:0C07540097F99F6780E870E060E008956E
:0A07600084B125B190E0922B0895BA
:08076A000E94FF000C9437030C
:060772009FEF80EC0895EA
:040778000C940000DD
:04077C00369A08950C
:08078000566F6C74203D20004F
:050788002020202000EC
:04078D00206D560085
:00000001FF
